:020000040800F2
:100000006004002001010008090A0008BD0300087F
:10001000050A000851020008F7200008000000004F
:10002000000000000000000000000000D10F0008E8
:100030005502000800000000B90E0008B1110008C8
:100040001B0100081B0100081B0100081B01000820
:100050001B0100081B0100081B0100081B01000810
:100060001B0100081B0100081B0100081B01000800
:100070001B0100081B0100081B0100081B010008F0
:100080001B0100081B0100081B0100081B010008E0
:100090001B0100081B0100081B0100081B010008D0
:1000A0001B0100081B0100081B0100081B010008C0
:1000B0001B010008551400081B0100081B01000863
:1000C0001B0100081B0100081B0100081B010008A0
:1000D0001B010008E51E00081B0100081B010008A9
:1000E0001B0100081B0100081B010008DFF80CD0F1
:1000F00000F018F8004800471921000860040020AB
:100100000648804706480047FEE7FEE7FEE7FEE7B1
:10011000FEE7FEE7FEE7FEE7FEE7FEE7B5110008B3
:10012000ED000008064C074D06E0E06840F00103D2
:1001300094E8070098471034AC42F6D3FFF7DAFF93
:1001400080280008A028000810B5482000F002F818
:1001500010BD000070B504460121214800F05DF992
:1001600020491F4800F00AFC002218211C4800F01A
:10017000E7F91D491A4800F001FC2146184800F033
:10018000E8F91949891C164800F0F8FB01211448C8
:1001900000F043F91349124800F0F0FB0122182146
:1001A0000F4800F0CDF90F49491C0D4800F0E6FB5F
:1001B00000210B4800F004F90121094800F039F949
:1001C00008493F31064800F0D9FB054800F0B4F972
:1001D00005460121024800F0F3F8284670BD0000F2
:1001E00000580040010003008200070070B504467B
:1001F0000D460121134800F010F91349114800F091
:10020000BDFB002218210F4800F09AF90F490D4854
:1002100000F0B4FB21460B4800F09BF90B49891E06
:10022000084800F0ABFB2946064800F092F9074960
:10023000891C044800F0A2FB0121024800F0F9F8F3
:1002400070BD00000058004001000300820007005C
:1002500000BFFEE7704700B5034603E04FF47A7035
:1002600000F005F8181EA3F10103F7D100BD00EB63
:10027000C001C9004FF0E0225161002191610521C8
:10028000116100BF4FF0E021096901F480310029BC
:10029000F8D004214FF0E022116170472DE9F041C0
:1002A000024600250026002000230024002791F8A4
:1002B00003C00CF00F0591F803C00CF0100CBCF15A
:1002C000000F03D091F802C04CEA050591F800C078
:1002D000BCF1000F31D0146800202BE04FF0010C6E
:1002E0000CFA00F3B1F800C00CEA03069E4220D1DC
:1002F00083004FF00F0C0CFA03F7BC4305FA03FC24
:100300004CEA040491F803C0BCF1280F06D14FF069
:10031000010C0CFA00FCC2F814C00AE091F803C00A
:10032000BCF1480F05D14FF0010C0CFA00FCC2F8EB
:1003300010C0401C0828D1D31460B1F800C0BCF133
:10034000FF0F34DD546800202EE000F1080C4FF060
:10035000010808FA0CF3B1F800C00CEA03069E424B
:1003600021D183004FF00F0C0CFA03F7BC4305FAC0
:1003700003FC4CEA040491F803C0BCF1280F05D13A
:1003800000F1080C08FA0CF8C2F8148091F803C0C8
:10039000BCF1480F07D100F1080C4FF0010808FA32
:1003A0000CF8C2F81080401C0828CED35460BDE879
:1003B000F0810AB1016100E04161704700BFFEE7D2
:1003C00021B1028842F48062028004E002884FF684
:1003D000FF331A400280704770B5024600240025A2
:1003E00000230020958A138B1B0445EA030626F0A0
:1003F0007F4404EA01068E4201D1012000E0002082
:1004000070BD21B1028842F00102028004E002883E
:100410004FF6FE731A400280704721B1028842F401
:100420008072028004E002884FF6FF631A40028067
:10043000704721B1028842F40072028004E0028811
:100440004FF6FF531A400280704700002DE9F04339
:1004500085B004460D460026B1460427DFF8CC805F
:10046000A6884FF6C0700640684600F047FDDDF8EC
:1004700008802F48B8FBF0F01FFA80F946EA090619
:10048000A68020884FF6FE7108402080002629496A
:10049000286888420CD828684000B8FBF0F087B282
:1004A000042F00DA04273E4309F10100208427E0ED
:1004B000E8884BF6FF71884206D1286800EB4000BF
:1004C000B8FBF0F087B209E0286800EBC00101EB4F
:1004D0000010B8FBF0F087B247F48047C7F30B0079
:1004E00008B947F0010747F4004006434FF49670FF
:1004F00009FB00F04FF47A7190FBF1F0401C20846E
:10050000A683208840F00100208026884FF6F53031
:100510000640A8886989084306432680A889298956
:100520000843208105B0BDE8F083000000127A0086
:1005300040420F00A08601000146088AC0B2704701
:1005400012B141F0010102E04FF6FE731940018241
:10055000704701827047000000B587B00121C802D2
:1005600000F0BCFC0121042000F0A8FC01210420C3
:1005700000F0B4FC0121082000F0B0FC48208DF808
:100580001B004001ADF8180003208DF81A0006A9E1
:100590005248FFF783FE48208DF81B004FF4A070EF
:1005A000ADF8180003208DF81A0006A94C48FFF793
:1005B00075FE4C4801F009F84B4801F006F80020A0
:1005C000ADF81200ADF80E004FF6FE70ADF8100059
:1005D0004720ADF80C0000208DF8140003A9414815
:1005E00001F0B6F90020ADF800000F20ADF80800CA
:1005F0000020ADF80200ADF806000120ADF80400BF
:100600006946384800F082FF6946364801F01AF919
:100610000820ADF800000220ADF80200ADF804009B
:100620006946304800F072FF0C20ADF80000002051
:10063000ADF802000120ADF804006946294800F039
:1006400065FF5021274801F03BF90421254801F0BE
:1006500040F903A9244801F07BF90020ADF800001F
:100660000F20ADF808000020ADF80200ADF806003C
:100670000120ADF8040069461B4800F047FF6946B9
:10068000194801F0DFF80820ADF800000020ADF8AF
:1006900002000120ADF804006946134800F036FF5F
:1006A0000C20ADF800000220ADF80200ADF8040007
:1006B00069460D4800F02AFF50210B4801F000F96F
:1006C0000421094801F005F90121064800F0F6FE71
:1006D0000121054800F0F2FE07B000BD000801400E
:1006E000000C0140002C01400008004000B585B01E
:1006F0000121880500F0E2FB0121082000F0EEFB5B
:100700001C208DF813004FF44060ADF8100003205A
:100710008DF8120004A92448FFF7C0FD0020ADF8B1
:100720000400224800904FF48040ADF8060000110C
:10073000ADF80A000001ADF80C000020ADF808008B
:1007400069461B48FFF782FE01211948FFF759FE51
:1007500080216B2000F024F96420FFF77CFD02214A
:10076000372000F01DF907211A2000F019F90721A0
:10077000192000F015F918211B2000F011F90821AB
:100780001D2000F00DF910211C2000F009F90121B5
:100790000B20FFF72BFD12210A20FFF727FD0A206F
:1007A000FFF759FD05B000BD000C0140801A06009E
:1007B0000058004070B505460C4601216C48FFF713
:1007C0002CFE6C496A4800F0D9F80022D021684814
:1007D000FFF7B6FE6849664800F0D0F8294664483D
:1007E000FFF7B7FE6449891C614800F0C7F8012192
:1007F0005F48FFF712FE5F495D4800F0BFF8012235
:10080000D0215B48FFF79CFE5A49491C584800F02C
:10081000B5F858493F31564800F0B0F85448FFF752
:100820008BFE000200B2208052493F31504800F058
:10083000A5F84F48FFF780FEB4F900100843208068
:100840004C493F314A4800F099F84948FFF774FE97
:10085000000200B2608047493F31454800F08EF801
:100860004348FFF769FEB4F902100843608041492C
:100870003F313F4800F082F83D48FFF75DFE00023F
:1008800000B2A0803B493F31394800F077F8384842
:10089000FFF752FEB4F904100843A08035493F31F8
:1008A000334800F06BF83248FFF746FE000200B212
:1008B000E08030493F312E4800F060F82C48FFF7C7
:1008C0003BFEB4F906100843E0802A493F3128482E
:1008D00000F054F82648FFF72FFE000200B22081F6
:1008E00024493F31224800F049F82148FFF724FE0F
:1008F000B4F90810084320811E493F311C4800F01C
:100900003DF81B48FFF718FE000200B2608119494C
:100910003F31174800F032F81548FFF70DFEB4F9E3
:100920000A100843608113493F31114800F026F84E
:100930000F48FFF701FE000200B2A08100210C4821
:10094000FFF73EFD01210A48FFF773FD09493F31DA
:10095000074800F013F80648FFF7EEFDB4F90C1055
:100960000843A08101210248FFF72AFD70BD000065
:1009700000580040010003008200070070B50546E2
:100980000E4642F2107402E0641E04B905E03146DE
:100990002846FFF721FD0128F6D100BF70BD0000F9
:1009A00070B504460D4601211348FFF736FD134983
:1009B0001148FFF7E3FF0022D0210F48FFF7C0FDE9
:1009C0000F490D48FFF7DAFF21460B48FFF7C1FD3D
:1009D0000B49891E0848FFF7D1FF29460648FFF753
:1009E000B8FD0749891C0448FFF7C8FF01210248E8
:1009F000FFF71FFD70BD000000580040010003001C
:100A00008200070000BFFEE77047000070B50021BC
:100A100000230F22C47804B3154C246804F4E06466
:100A2000C4F5E064210AC1F10403CA40447804FA21
:100A300003F184781440214309010E4C0678A15536
:100A4000047804F01F050124AC4005786D11AD0059
:100A500005F1E025C5F8004109E0047804F01F0520
:100A60000124AC40044D0678761145F8264070BD4F
:100A70000CED00E000E400E080E100E00249014309
:100A8000024A1160704700000000FA050CED00E01A
:100A900070B500240EE00021204600F0EAF80025A1
:100AA00004E0002000F09DF9681CC5B2802DF8DB41
:100AB000601CC4B2082CEEDB70BD000008B501213B
:100AC000042000F00BFA14208DF8030003208DF8A9
:100AD00002002020ADF8000069460A48FFF7DEFB5F
:100AE0004020ADF8000069460648FFF7D7FB012219
:100AF00020210448FFF75DFC012240210148FFF757
:100B000058FC08BD0008014070B50546002413E0FC
:100B10008020204100EA050240210E48FFF749FCF1
:100B2000012220210B48FFF744FC00222021094824
:100B3000FFF73FFC601CC4B2082CE9DB0122202136
:100B40000448FFF736FC002220210248FFF731FC61
:100B500070BD00000008014010B501224021094885
:100B6000FFF727FC012220210648FFF722FC002284
:100B700040210448FFF71DFC002220210148FFF717
:100B800018FC10BD0008014010B5002240210748A4
:100B9000FFF70FFC012220210448FFF70AFC012285
:100BA00040210248FFF705FC10BD0000000801408D
:100BB00070B5002406E0002500E06D1CB5F57A7FD5
:100BC000FBD3641CB4F57A7FF5D3FFF777FFAE2033
:100BD00000F0F7F8D52000F0F4F8802000F0F1F8EC
:100BE000A82000F0EEF83F2000F0EBF8D32000F052
:100BF000E8F8002000F0E5F8402000F0E2F8A1203D
:100C000000F0DFF8C82000F0DCF8DA2000F0D9F8B6
:100C1000122000F0D6F8812000F0D3F8CF2000F0A9
:100C2000D0F8D92000F0CDF8F12000F0CAF8DB2090
:100C300000F0C7F8302000F0C4F8A42000F0C1F89C
:100C4000A62000F0BEF88D2000F0BBF8142000F0C4
:100C5000B8F8AF2000F0B5F8FFF71AFF70BD10B577
:100C60000246012000E050430B1EA1F10101FAD120
:100C700010BD70B505460C4645F0B00000F0A1F877
:100C8000102141EA141000F09CF804F00F0000F06D
:100C900098F870BD2DE9F04105460E461746721EC4
:100CA000D206110E6A1E5206100EFFF7E2FF002454
:100CB00009E0A7F12001134A02EB0111085D00F0E1
:100CC00090F8601CC4B2082CF3DB721ED206110E21
:100CD0006A1E012303EB4202D0B2FFF7CAFF0024D1
:100CE0000BE0A7F12001074A02EB011204F1080111
:100CF000505C00F076F8601CC4B2082CF1DBBDE853
:100D0000F0810000902200082DE9F04781460E4650
:100D100090461F4600241DE0381B411E1020FFF79F
:100D20009EFFB8FBF0F000F00F050A2D08DA05F180
:100D30003000C2B23019C1B24846FFF7ABFF07E03E
:100D400005F13700C2B23019C1B24846FFF7A2FF21
:100D5000601CC4B2BC42DFDBBDE8F0872DE9F04780
:100D60008146884615461E46002D06DB2B2241464D
:100D70004846FFF78FFF2F4605E02D2241464846A3
:100D8000FFF788FF6F42002417E0301B411E0A2046
:100D9000FFF765FFB7FBF0F00A21B0FBF1F201FBB2
:100DA000120000F1300A08EB0400401CC1B25246A8
:100DB0004846FFF76FFF601CC4B2B442E5DBBDE8F4
:100DC000F08710B50446FFF7C7FE7820FFF79CFEBA
:100DD0000020FFF799FE2046FFF796FEFFF7D4FEAE
:100DE00010BD10B50446FFF7B7FE7820FFF78CFE64
:100DF0004020FFF789FE2046FFF786FEFFF7C4FE7E
:100E000010BD000000B589B00121084600F056F879
:100E10000121042000F062F818208DF823000F2033
:100E2000ADF8200003208DF8220008A92148FFF723
:100E300035FA4FF0804000F0C8FB0020ADF81A00F2
:100E4000ADF8160044F61F60ADF818004720ADF865
:100E5000140000208DF81C0005A94FF0804000F020
:100E600077FD01A800F0E4FC6020ADF8040000204C
:100E7000ADF80C000120ADF806000020ADF80A0026
:100E800001A94FF0804000F0A7FB01A94FF080407E
:100E900000F0EEFB01A94FF0804000F03BFC01A9FF
:100EA0004FF0804000F086FC0121880700F006FB2F
:100EB00009B000BD000801407047000029B1064A92
:100EC000D2690243044BDA6104E0034AD2698243E7
:100ED000014BDA61704700000010024029B1064A58
:100EE00092690243044B9A6104E0034A9269824387
:100EF000014B9A61704700000010024030B500219C
:100F00000022002400232D4D6D6805F00C0121B155
:100F1000042905D0082923D105E0294D056022E0E8
:100F2000274D05601FE0254D6D6805F47012234DB7
:100F30006D6805F48034022505EB92421CB9214D01
:100F4000554305600BE01D4D6D6805F400351DB17E
:100F50001C4D5543056002E0194D5543056002E004
:100F6000174D056000BF00BF144D6D6805F0F0011E
:100F70000909154D6B5C0568DD4045600F4D6D68D6
:100F800005F4E061090A104D6B5C4568DD40856041
:100F90000A4D6D6805F46051C90A0B4D6B5C4568DC
:100FA000DD40C560054D6D6805F44041890B074D76
:100FB0006B5CC568B5FBF3F5056130BD0010024000
:100FC00000127A0000093D000000002010000020FF
:100FD0007047000000B587B001210420FFF77EFFB5
:100FE00001218803FFF77AFF18208DF81B004FF4CA
:100FF0000070ADF8180003208DF81A0006A92148EA
:10100000FFF74CF948208DF81B004FF48060ADF8D5
:10101000180003208DF81A0006A91A48FFF73EF9B8
:101020004FF4E13002900020ADF814000C20ADF830
:1010300012000020ADF81000ADF80E00ADF80C0065
:1010400002A9114800F0E2FF012240F225510E48AA
:1010500000F0B6FF4FF4A060FFF710FD25208DF8DB
:10106000040001208DF807008DF805008DF80600BA
:1010700001A8FFF7CBFC0121034800F05EFF07B099
:1010800000BD0000000801400038014070B5054671
:101090000E46002404E0285D00F006F8601C84B2CF
:1010A000B442F8DB70BD000010B504462146054887
:1010B00001F01DF800BF8021024800F04AFF00281F
:1010C000F9D010BD0038014010B500F001F810BD96
:1010D0000CB50020019000903348006840F4803047
:1010E0003149086000BF3048006800F400300090CB
:1010F0000198401C0190009818B90198B0F5A06FB4
:10110000F1D12948006800F4003010B101200090AE
:1011100001E0002000900098012843D12348006896
:1011200040F01000214908600846006820F00300E4
:1011300008600846006840F0020008601A484068ED
:10114000194948600846406848600846406840F4CD
:10115000806048600846406820F47C10486008467B
:10116000406840F4E81048600846006840F080702D
:10117000086000BF0C48006800F000700028F9D03B
:101180000948406820F00300074948600846406865
:1011900040F00200486000BF0348406800F00C00C7
:1011A0000828F9D10CBD00000010024000200240C8
:1011B0007047000010B51348006840F00100114965
:1011C000086008464068104908400E4948600846D3
:1011D00000680E4908400B4908600846006820F482
:1011E000802008600846406820F4FE0048604FF404
:1011F0001F008860FFF768FF4FF000600449086037
:1012000010BD0000001002400000FFF8FFFFF6FED6
:1012100008ED00E0F0B50C46154600220021068CD2
:101220004FF6FE773E400684028B018C4FF60C761B
:1012300032407E1C06EA03162E433243104EB04263
:101240000ED0104EB0420BD0B0F1804F08D00E4EF1
:10125000B04205D00D4EB04202D00D4EB04206D184
:101260004FF6FD76314044F00106314305E04FF67C
:10127000F576314044F00106314302830184F0BD2C
:10128000002C0140003401400004004000080040F0
:10129000000C0040F0B50C46154600220021002647
:1012A000078C4FF6EF7C07EA0C070784028B018C52
:1012B0004FF6FF7707EA041640F6FF473A404FF62D
:1012C000FF7707EA03373A434FF6FF7707EA052728
:1012D0003A43114FB8420ED0104FB8420BD0B0F184
:1012E000804F08D00E4FB84205D00E4FB84202D002
:1012F0000D4FB84206D14FF6DF77394046F0100760
:10130000394305E04FF65F77394044F01007394321
:1013100002830184F0BD0000002C01400034014034
:101320000004004000080040000C0040F0B50C46EE
:101330001546002200210026078C4FF6FF6C07EAB5
:101340000C070784828B018C4FF6FF7707EA04268F
:101350004FF60C773A404FF6FF7707EA03172F4313
:101360003A43114FB8420ED0104FB8420BD0B0F1F3
:10137000804F08D00E4FB84205D00E4FB84202D071
:101380000D4FB84206D14FF6FF57394046F48077EB
:10139000394305E04FF2FF57394044F48077394331
:1013A00082830184F0BD0000002C01400034014024
:1013B0000004004000080040000C0040F0B50C465E
:1013C0001546002200210026078C4EF6FF7C07EA16
:1013D0000C070784828B018C4FF6FF7707EA0436EF
:1013E00040F6FF473A404FF6FF7707EA05273A43B2
:1013F0004FF6FF7707EA03373A43114FB8420ED052
:10140000104FB8420BD0B0F1804F08D00E4FB84209
:1014100005D00E4FB84202D00D4FB84206D14DF65E
:10142000FF77394046F48057394305E047F6FF57C8
:10143000394044F48057394382830184F0BD000071
:10144000002C01400034014000040040000800402E
:10145000000C004010B50121124800F045F80128A9
:101460001FD111480088401C00B20F4908800F4866
:101470000088401C00B20D4908800B48B0F90000FC
:10148000142802DB0020084908800848B0F9000051
:10149000322802DB0020054908800121014800F0C4
:1014A0000AF810BD000400402400002022000020A3
:1014B000CA4302827047CA430282704721B1028840
:1014C00042F00102028004E002884FF6FE731A40E7
:1014D000028070470146088F70470146888F704729
:1014E0000146B1F84000704730B5024600200023A5
:1014F0000024158A05EA0103958905EA010413B160
:101500000CB1012000E0002030BD000070B50546A0
:101510000C46244885420ED0234885420BD0B5F1B5
:10152000804F08D02148854205D02148854202D00D
:101530002048854200D100E000BF208850B92389AF
:10154000A28861882846FFF765FEE188284600F0FA
:10155000D2F925E0208804280AD12389A28861884D
:101560002846FFF797FEE188284600F0CDF917E0FE
:10157000208808280AD12389A28861882846FFF795
:10158000D5FEE188284600F0CCF909E02389A2883D
:1015900061882846FFF712FFE188284600F0CAF963
:1015A00070BD0000002C01400034014000040040E8
:1015B00000080040000C00401AB183890B4383816E
:1015C00002E083898B438381704701894FF6F8726B
:1015D000114001817047000070B5002400220023F3
:1015E000058C4FF6FE7635400584028C8388048B8B
:1015F0004FF68F752C40B51E2C400D882C43751E60
:101600002A400D892A434D882A43144DA8420BD005
:10161000134DA84208D0134DA84205D0124DA84240
:1016200002D0124DA84213D14FF6F7752A404D89CA
:101630002A434FF6FB752A408D882A434FF6FF65F3
:101640002B404FF6FF552B408D892B43CD892B43E3
:1016500083800483CD888586028470BD002C014080
:101660000034014000400140004401400048014076
:1016700070B5002400220023058C4FF6EF7635402C
:101680000584028C8388048B48F6FF752C404FF646
:10169000FF452C400D884FF6FF7606EA05252C43C2
:1016A0004FF6DF752A400D8906EA05152A434D8855
:1016B00006EA05152A43154DA84202D0144DA8424A
:1016C0001DD14FF67F752A404D894FF6FF7606EA09
:1016D00005152A434FF6BF752A408D8806EA051581
:1016E0002A434FF6FF352B404FF2FF752B408D8973
:1016F00006EA85052B43CD8906EA85052B438380C1
:101700000483CD880587028470BD0000002C014051
:101710000034014070B5002400220023058C4FF6F0
:10172000FF6635400584028C8388848B4FF68F7565
:101730002C404FF6FC752C400D882C434FF6FF557E
:101740002A400D894FF6FF7606EA05252A434D8883
:1017500006EA05252A43154DA84202D0144DA84299
:101760001DD14FF2FF752A404D894FF6FF7606EAEC
:1017700005252A434FF6FF352A408D8806EA0525C0
:101780002A434EF6FF752B404DF6FF752B408D8991
:1017900006EA05152B43CD8906EA05152B43838000
:1017A0008483CD888587028470BD0000002C0140B1
:1017B0000034014070B5002200230024058C4EF651
:1017C000FF7635400584038C8488828B48F6FF754C
:1017D0002A404FF6FF452A400D884FF6FF7606EA6D
:1017E00005252A434DF6FF752B400D8906EA053580
:1017F0002B434D8806EA05352B430B4DA84202D0FA
:101800000A4DA84208D14BF6FF752C408D894FF642
:10181000FF7606EA85152C4384808283CD88A0F864
:101820004050038470BD0000002C01400034014092
:101830000021018041808180C180018141818181BD
:10184000C18170472DE9F04105460C46002601276D
:10185000608808B9022600E00026A088012801D18E
:10186000022700E001272088A0B92389A288618887
:101870002846FFF7CFFCE188284600F03CF8238992
:101880003A4631462846FFF705FDE188284600F034
:101890003BF813E02389A28861882846FFF7FAFC09
:1018A000E188284600F030F823893A463146284638
:1018B000FFF7B0FCE188284600F01DF8BDE8F08194
:1018C0000A46002101894FF68F73194011430181A7
:1018D000704702894FF6F8731A40028102890A4361
:1018E0000281704781867047018770478187704702
:1018F000A0F840107047028B4FF6F3731A40028332
:10190000028B0A4302837047028B4FF2FF331A4067
:101910000283028B4FF6FF7303EA01231A4302830B
:101920007047828B4FF6F3731A408283828B0A438F
:1019300082837047828B4FF2FF331A408283828BFF
:101940004FF6FF7303EA01231A43828370470000B6
:10195000002202881D4B98420ED01D4B98420BD09E
:10196000B0F1804F08D01B4B984205D01A4B9842DB
:1019700002D01A4B984204D14FF68F731A404B880D
:101980001A43174B984207D0164B984204D04FF693
:10199000FF431A40CB881A4302808B8883850B88CB
:1019A00003850A4B98420BD0094B984208D00E4B46
:1019B000984205D00D4B984202D00D4B984201D170
:1019C0000B7A03860123838270470000002C0140BC
:1019D000003401400004004000080040000C0040BA
:1019E000001000400014004000400140004401404D
:1019F000004801402DE9FE4F04460D4616461F469D
:101A0000DDE90EABDDE90C89002002900190009029
:101A100088229DF80800411CC9B2029170490A54FD
:101A2000A1229DF80800411CC9B202916C490A54D8
:101A300000229DF80800411CC9B2029168490A546D
:101A400022129DF80800411CC9B2029164490A544F
:101A50009DF80800411CC9B2029161490C542A1238
:101A60009DF80800411CC9B202915D490A549DF8D5
:101A70000800411CC9B2029159490D5432129DF817
:101A80000800411CC9B2029155490A549DF808004A
:101A9000411CC9B2029152490E543A129DF80800F5
:101AA000411CC9B202914E490A549DF80800411CDC
:101AB000C9B202914A490F544FEA28229DF8080002
:101AC000411CC9B2029146490A549DF80800411CC4
:101AD000C9B20291424901F800804FEA29229DF8DB
:101AE0000800411CC9B202913D490A549DF8080002
:101AF000411CC9B202913A4901F800904FEA2A22EA
:101B00009DF80800411CC9B2029135490A549DF85C
:101B10000800411CC9B20291314901F800A04FEA06
:101B20002B229DF80800411CC9B202912C490A548D
:101B30009DF80800411CC9B20291294901F800B082
:101B400010990A129DF80800411CC9B2029124495B
:101B50000A541099CAB29DF80800411CC9B20291FA
:101B60001F490A5411990A129DF80800411CC9B274
:101B700002911B490A541199CAB29DF80800411CF0
:101B8000C9B2029116490A549DF80800C01E887017
:101B9000002000900DE012489DF80010405C9DF878
:101BA00004100844C0B201909DF80000401CC0B26F
:101BB00000909DF800009DF808108842EBDB9DF82E
:101BC00004209DF80800411CC9B2029104490A543E
:101BD0009DF808100248FFF759FABDE8FE8F000093
:101BE000280000202DE9FE4F04460D4616461F46EC
:101BF000DDE90EABDDE90C89002002900190009038
:101C000088229DF80800411CC9B2029194490A54E7
:101C1000AF229DF80800411CC9B2029190490A54B4
:101C20001C229DF80800411CC9B202918C490A543B
:101C3000C4F307229DF80800411CC9B202918849EB
:101C40000A549DF80800411CC9B2029184490C5401
:101C5000C5F307229DF80800411CC9B202918049D2
:101C60000A549DF80800411CC9B202917C490D54E8
:101C7000C6F307229DF80800411CC9B202917849B9
:101C80000A549DF80800411CC9B2029174490E54CF
:101C9000C7F307229DF80800411CC9B202917049A0
:101CA0000A549DF80800411CC9B202916C490F54B6
:101CB000C8F307229DF80800411CC9B20291684987
:101CC0000A549DF80800411CC9B20291644901F808
:101CD0000080C9F307229DF80800411CC9B2029197
:101CE0005F490A549DF80800411CC9B202915C4941
:101CF00001F80090CAF307229DF80800411CC9B200
:101D0000029157490A549DF80800411CC9B202913A
:101D1000534901F800A0CBF307229DF80800411CAD
:101D2000C9B202914E490A549DF80800411CC9B23B
:101D300002914B4901F800B01099C1F307229DF8B8
:101D40000800411CC9B2029145490A541099CAB20F
:101D50009DF80800411CC9B2029141490A541199E9
:101D6000C1F307229DF80800411CC9B202913C4909
:101D70000A541199CAB29DF80800411CC9B20291D7
:101D800037490A541299C1F307229DF80800411CF3
:101D9000C9B2029132490A541299CAB29DF8080098
:101DA000411CC9B202912E490A541399C1F307226A
:101DB0009DF80800411CC9B2029129490A5413999F
:101DC000CAB29DF80800411CC9B2029124490A54C4
:101DD00000229DF80800411CC9B2029120490A5412
:101DE0009DF80800411CC9B202911D490A549DF892
:101DF0000800411CC9B2029119490A549DF8080013
:101E0000411CC9B2029116490A549DF80800C01E2F
:101E10008870002000900DE011489DF80010405C93
:101E20009DF804100844C0B201909DF80000401CC9
:101E3000C0B200909DF800009DF808108842EBDBCE
:101E40009DF804209DF80800411CC9B20291044984
:101E50000A549DF808100248FFF718F9BDE8FE8FF4
:101E6000280000201FB501210220FFF727F81C4899
:101E7000FFF7ABFB0020ADF80A00ADF8060040F21A
:101E8000E730ADF8080040F2CF20ADF804000020A4
:101E90008DF80C0001A91248FFF75AFD01211048E6
:101EA000FFF706FB012211460D48FFF785FB4FF4B3
:101EB000A060FEF7E3FD1D208DF8000001208DF8E5
:101EC000030002208DF8010001208DF80200684611
:101ED000FEF79CFD01210248FFF7F0FA1FBD00004C
:101EE0000004004010B540F22551094800F03EF8CA
:101EF00001280CD1064800F0F5F8064908700120C9
:101F00000549087040F22551014800F007F810BD5E
:101F100000380140260000202700002010B50022D4
:101F2000002340F66A14A14200D100BF0A12012426
:101F30009440A3B2DC43048010BD21B1828942F4F5
:101F40000052828104E082894DF6FF731A4082813B
:101F5000704702460020B1F5007F00D100BF138812
:101F60000B400BB1012000E00020704770B5024625
:101F7000002400230025002040F66A16B14200D15B
:101F800000BFC1F3421501F01F03012606FA03F357
:101F9000012D02D19689334006E0022D02D1168A26
:101FA000334001E0968A33400C12012606FA04F40D
:101FB0001688344013B10CB1012000E0002070BD40
:101FC000F0B50346002400260025002040F66A17DD
:101FD000B94200D100BF1846C1F3421401F01F06F8
:101FE000012707FA06F5012C01D10C3004E0022C80
:101FF00001D1103000E014301AB107682F43076098
:1020000002E00768AF430760F0BD00002DE9F0472C
:1020100086B005460E460024A24600BFA146002712
:10202000B08900B100BF2F462C8A4CF6FF700440E7
:10203000F08804432C82AC894EF6F3100440B0883B
:1020400031890843718908430443AC81AC8A4FF657
:10205000FF400440B0890443AC8201A8FEF74EFF64
:102060001F48874202D1DDF810A001E0DDF80CA086
:10207000A88900F4004040B10AEBCA0000EB0A1046
:1020800031684900B0FBF1F807E00AEBCA0000EB49
:102090000A1031688900B0FBF1F86420B8FBF0F059
:1020A00004012009642101FB1089A88900F4004083
:1020B00040B1322000EBC900B0FBF1F000F00700A6
:1020C000044308E0322000EB09106421B0FBF1F07A
:1020D00000F00F0004432C8106B0BDE8F08700003B
:1020E0000038014001468888C0F308007047C1F3FA
:1020F00008028280704700BFFEE702E008C8121F96
:1021000008C1002AFAD170477047002001E001C1E0
:10211000121F002AFBD170478CB0FEF773FEFEF74A
:1021200047FDFEF719FAFEF7E1FAFEF753FFFFF756
:1021300099FEA3E001200290039004900590009086
:102140000190BDF820309AB2BDF81E3099B2BDF8AA
:102150001C3098B20123FFF74DFC01211E224FF4E1
:10216000FA63BDF92800CDE9023204910190BDF96E
:1021700026000090BDF92430BDF92020BDF91E10C5
:10218000BDF91C00FFF72EFD3D48FFF7A3F9401CE9
:1021900084B221464FF08040FFF7A4FB3848FFF798
:1021A0009CF9451C3648FFF79BF9401C281A84B25D
:1021B00021464FF08040FFF797FB3248FFF78AF93E
:1021C000401C84B221464FF08040FFF78FFB2D4822
:1021D000FFF786F9451C2B48FFF77FF9401C281AAA
:1021E00084B221464FF08040FFF782FB07A93B20D5
:1021F000FEF7E0FAFDF7A8FF23490870234800889E
:10220000401C00B22149088002231F4802780121A6
:102210000846FEF779FD05231C48B0F90020082187
:102220000120FEF771FDBDF91C20052301210220CC
:10223000FEF794FDBDF91E20052301210320FEF7C2
:102240008DFDBDF92020052301210420FEF786FD28
:10225000BDF92420052308210220FEF77FFDBDF9EA
:102260002620052308210320FEF778FDBDF928204C
:10227000052308210420FEF771FD00BF5AE7000086
:10228000002C01400008004014000020180000202D
:10229000000000000000000000000000000000003E
:1022A000000000F8000000000000003330000000D3
:1022B00000100C06100C06000000000000000000DA
:1022C00040C07840C0784000043F04043F0404004C
:1022D000007088FC08300000001820FF211E00005C
:1022E000F008F000E018000000211C031E211E0071
:1022F00000F00888700000001E21232419272110F7
:1023000010160E0000000000000000000000000099
:10231000000000E018040200000000071820400040
:1023200000020418E0000000004020180700000030
:10233000404080F0804040000202010F0102020094
:10234000000000F0000000000101011F0101010078
:10235000000000000000000080B0700000000000DD
:102360000000000000000000000101010101010166
:1023700000000000000000000030300000000000FD
:1023800000000000806018040060180601000000D2
:1023900000E010080810E000000F102020100F00CF
:1023A000001010F8000000000020203F2020000056
:1023B00000700808088870000030282422213000AE
:1023C00000300888884830000018202020110E00B6
:1023D0000000C02010F8000000070424243F24005F
:1023E00000F80888880808000019212020110E0034
:1023F00000E0108888180000000F112020110E0046
:1024000000380808C83808000000003F000000003D
:102410000070880808887000001C222121221C00FE
:1024200000E010080810E0000000312222110F0027
:10243000000000C0C00000000000003030000000BC
:10244000000000800000000000008060000000002C
:102450000000804020100800000102040810200045
:102460004040404040404000040404040404040090
:102470000008102040800000002010080402010025
:10248000007048080808F000000000303601000025
:10249000C030C828E810E0000718272423140B00D8
:1024A0000000C038E0000000203C23020227382052
:1024B00008F8888888700000203F202020110E0036
:1024C000C03008080808380007182020201008002D
:1024D00008F808080810E000203F202020100F0016
:1024E00008F88888E8081000203F202023201800E2
:1024F00008F88888E8081000203F2000030000004A
:10250000C03008080838000007182020221E0200EA
:1025100008F808000008F808203F210101213F20A9
:10252000000808F8080800000020203F20200000D4
:1025300000000808F8080800C08080807F000000C4
:1025400008F888C028180800203F200126382000FD
:1025500008F8080000000000203F20202020300064
:1025600008F8F800F8F80800203F003F003F20007E
:1025700008F830C00008F808203F200007183F0086
:10258000E01008080810E0000F10202020100F00B5
:1025900008F808080808F000203F210101010000A8
:1025A000E01008080810E0000F18242438504F00ED
:1025B00008F8888888887000203F2000030C3020AD
:1025C00000708808080838000038202121221C00EB
:1025D000180808F8080818000000203F2000000034
:1025E00008F808000008F808001F202020201F001D
:1025F0000878880000C83808000007380E0100007D
:10260000F80800F80008F800033C0700073C030046
:10261000081868808068180820302C03032C3020AC
:102620000838C800C83808000000203F200000001B
:1026300010080808C8380800203826212020180073
:10264000000000FE020202000000007F4040400047
:10265000000C30C000000000000000010638C0007F
:1026600000020202FE000000004040407F00000027
:10267000000004020202040000000000000000004C
:10268000000000000000000080808080808080804A
:102690000002020400000000000000000000000032
:1026A00000008080808000000019242222223F2028
:1026B00008F8008080000000003F112020110E006B
:1026C0000000008080800000000E112020201100FA
:1026D000000000808088F800000E112020103F20AC
:1026E0000000808080800000001F22222222130030
:1026F000008080F0888888180020203F202000007B
:102700000000808080808000006B9494949360002F
:1027100008F8008080800000203F210000203F203A
:1027200000809898000000000020203F202000003A
:10273000000000809898000000C08080807F00002A
:1027400008F8000080808000203F24022D30200007
:10275000000808F8000000000020203F20200000B2
:102760008080808080808000203F20003F20003FCC
:102770008080008080800000203F210000203F20DA
:102780000000808080800000001F202020201F008B
:10279000808000808000000080FFA12020110E00BA
:1027A0000000008080808000000E112020A0FF80AB
:1027B000808080008080800020203F212000010058
:1027C00000008080808080000033242424241900AD
:1027D000008080E0808000000000001F20200000BA
:1027E0008080000000808000001F202020103F20FB
:1027F000808080000080808000010E30080601008B
:1028000080800080008080800F300C030C300F002F
:1028100000808000808080000020312E0E3120005A
:10282000808080000080808080818E70180601008A
:1028300000808080808080000021302C22213000A8
:1028400000000000807C020200000000003F4040C9
:1028500000000000FF00000000000000FF0000007A
:102860000002027C800000000040403F00000000A9
:102870000006010102020404000000000000000044
:10288000A02800080000002028000000FA2000080E
:10289000C828000828000020380400000A21000889
:1028A00000000000010203040102030406070809F6
:1028B0000204060800000000000000000000000004
:0828C000000000000000000010
:04000005080000ED02
:00000001FF
